{
  "address": "0x21d7623D6368f4Ac7Cf9A9AE2bE216F44FfEcF94",
  "abi": [
    {
      "inputs": [
        {
          "internalType": "address",
          "name": "_token",
          "type": "address"
        },
        {
          "internalType": "address",
          "name": "_reward",
          "type": "address"
        }
      ],
      "stateMutability": "nonpayable",
      "type": "constructor"
    },
    {
      "inputs": [],
      "name": "InsufficientBalance",
      "type": "error"
    },
    {
      "anonymous": false,
      "inputs": [
        {
          "indexed": true,
          "internalType": "address",
          "name": "previousOwner",
          "type": "address"
        },
        {
          "indexed": true,
          "internalType": "address",
          "name": "newOwner",
          "type": "address"
        }
      ],
      "name": "OwnershipTransferred",
      "type": "event"
    },
    {
      "inputs": [],
      "name": "DURATION",
      "outputs": [
        {
          "internalType": "uint256",
          "name": "",
          "type": "uint256"
        }
      ],
      "stateMutability": "view",
      "type": "function"
    },
    {
      "inputs": [],
      "name": "claimReward",
      "outputs": [],
      "stateMutability": "nonpayable",
      "type": "function"
    },
    {
      "inputs": [
        {
          "internalType": "uint256",
          "name": "amount",
          "type": "uint256"
        }
      ],
      "name": "createStake",
      "outputs": [],
      "stateMutability": "nonpayable",
      "type": "function"
    },
    {
      "inputs": [
        {
          "internalType": "address",
          "name": "account",
          "type": "address"
        }
      ],
      "name": "getRewardBalance",
      "outputs": [
        {
          "internalType": "uint256",
          "name": "",
          "type": "uint256"
        }
      ],
      "stateMutability": "view",
      "type": "function"
    },
    {
      "inputs": [
        {
          "internalType": "address",
          "name": "account",
          "type": "address"
        }
      ],
      "name": "getTokenBalance",
      "outputs": [
        {
          "internalType": "uint256",
          "name": "",
          "type": "uint256"
        }
      ],
      "stateMutability": "view",
      "type": "function"
    },
    {
      "inputs": [],
      "name": "owner",
      "outputs": [
        {
          "internalType": "address",
          "name": "",
          "type": "address"
        }
      ],
      "stateMutability": "view",
      "type": "function"
    },
    {
      "inputs": [
        {
          "internalType": "uint256",
          "name": "_amount",
          "type": "uint256"
        }
      ],
      "name": "removeStake",
      "outputs": [],
      "stateMutability": "nonpayable",
      "type": "function"
    },
    {
      "inputs": [],
      "name": "renounceOwnership",
      "outputs": [],
      "stateMutability": "nonpayable",
      "type": "function"
    },
    {
      "inputs": [],
      "name": "reward",
      "outputs": [
        {
          "internalType": "contract IRewardToken",
          "name": "",
          "type": "address"
        }
      ],
      "stateMutability": "view",
      "type": "function"
    },
    {
      "inputs": [],
      "name": "token",
      "outputs": [
        {
          "internalType": "contract IERC20",
          "name": "",
          "type": "address"
        }
      ],
      "stateMutability": "view",
      "type": "function"
    },
    {
      "inputs": [
        {
          "internalType": "address",
          "name": "newOwner",
          "type": "address"
        }
      ],
      "name": "transferOwnership",
      "outputs": [],
      "stateMutability": "nonpayable",
      "type": "function"
    }
  ],
  "transactionHash": "0xb7c333f7078d77a6c83765898d0445b807a889860fad0d3f3b56860a44c7e3e2",
  "args": [
    "0xC2D4eB3D7D36631AD7691fF35fb5437a2d3B3A56",
    "0xdC253404ff301c1d0Bd381626960d851eDE99262"
  ],
  "numDeployments": 1,
  "solcInputHash": "da9fa0565c135d98e608949e360dd28f",
  "bytecode": "0x60806040523480156200001157600080fd5b506040516200152938038062001529833981810160405281019062000037919062000217565b620000576200004b620000e160201b60201c565b620000e960201b60201c565b81600160006101000a81548173ffffffffffffffffffffffffffffffffffffffff021916908373ffffffffffffffffffffffffffffffffffffffff16021790555080600260006101000a81548173ffffffffffffffffffffffffffffffffffffffff021916908373ffffffffffffffffffffffffffffffffffffffff16021790555050506200025e565b600033905090565b60008060009054906101000a900473ffffffffffffffffffffffffffffffffffffffff169050816000806101000a81548173ffffffffffffffffffffffffffffffffffffffff021916908373ffffffffffffffffffffffffffffffffffffffff1602179055508173ffffffffffffffffffffffffffffffffffffffff168173ffffffffffffffffffffffffffffffffffffffff167f8be0079c531659141344cd1fd0a4f28419497f9722a3daafe3b4186f6b6457e060405160405180910390a35050565b600080fd5b600073ffffffffffffffffffffffffffffffffffffffff82169050919050565b6000620001df82620001b2565b9050919050565b620001f181620001d2565b8114620001fd57600080fd5b50565b6000815190506200021181620001e6565b92915050565b60008060408385031215620002315762000230620001ad565b5b6000620002418582860162000200565b9250506020620002548582860162000200565b9150509250929050565b6112bb806200026e6000396000f3fe608060405234801561001057600080fd5b50600436106100a95760003560e01c80638da5cb5b116100715780638da5cb5b14610140578063939624ab1461015e578063b88a802f1461017a578063d5a849e914610184578063f2fde38b146101b4578063fc0c546a146101d0576100a9565b80631be05289146100ae5780631bf6ddae146100cc578063228cb733146100e85780633aecd0e314610106578063715018a614610136575b600080fd5b6100b66101ee565b6040516100c39190610c1c565b60405180910390f35b6100e660048036038101906100e19190610c68565b6101f5565b005b6100f0610421565b6040516100fd9190610d14565b60405180910390f35b610120600480360381019061011b9190610d6d565b610447565b60405161012d9190610c1c565b60405180910390f35b61013e610493565b005b6101486104a7565b6040516101559190610da9565b60405180910390f35b61017860048036038101906101739190610c68565b6104d0565b005b6101826106b5565b005b61019e60048036038101906101999190610d6d565b610826565b6040516101ab9190610c1c565b60405180910390f35b6101ce60048036038101906101c99190610d6d565b610872565b005b6101d86108f6565b6040516101e59190610de5565b60405180910390f35b6201518081565b6000600360003373ffffffffffffffffffffffffffffffffffffffff1673ffffffffffffffffffffffffffffffffffffffff1681526020019081526020016000209050600160009054906101000a900473ffffffffffffffffffffffffffffffffffffffff1673ffffffffffffffffffffffffffffffffffffffff166370a08231336040518263ffffffff1660e01b81526004016102939190610da9565b60206040518083038186803b1580156102ab57600080fd5b505afa1580156102bf573d6000803e3d6000fd5b505050506040513d601f19601f820116820180604052508101906102e39190610e15565b82111561031c576040517ff4d678b800000000000000000000000000000000000000000000000000000000815260040160405180910390fd5b600160009054906101000a900473ffffffffffffffffffffffffffffffffffffffff1673ffffffffffffffffffffffffffffffffffffffff166323b872dd3330856040518463ffffffff1660e01b815260040161037b93929190610e42565b602060405180830381600087803b15801561039557600080fd5b505af11580156103a9573d6000803e3d6000fd5b505050506040513d601f19601f820116820180604052508101906103cd9190610eb1565b50818160000160008282546103e29190610f0d565b9250508190555061040f60405180606001604052806022815260200161124260229139826000015461091c565b61041d3382600001546109b8565b5050565b600260009054906101000a900473ffffffffffffffffffffffffffffffffffffffff1681565b6000600360008373ffffffffffffffffffffffffffffffffffffffff1673ffffffffffffffffffffffffffffffffffffffff168152602001908152602001600020600001549050919050565b61049b610a51565b6104a56000610acf565b565b60008060009054906101000a900473ffffffffffffffffffffffffffffffffffffffff16905090565b6000600360003373ffffffffffffffffffffffffffffffffffffffff1673ffffffffffffffffffffffffffffffffffffffff16815260200190815260200160002090508060000154821115610551576040517ff4d678b800000000000000000000000000000000000000000000000000000000815260040160405180910390fd5b6000816000015490508282600001600082825461056e9190610f63565b9250508190555061057f33826109b8565b60008260000154141561059757600082600201819055505b600160009054906101000a900473ffffffffffffffffffffffffffffffffffffffff1673ffffffffffffffffffffffffffffffffffffffff1663a9059cbb33856040518363ffffffff1660e01b81526004016105f4929190610f97565b602060405180830381600087803b15801561060e57600080fd5b505af1158015610622573d6000803e3d6000fd5b505050506040513d601f19601f820116820180604052508101906106469190610eb1565b5061066d60405180606001604052806022815260200161126460229139836000015461091c565b6106b06040518060400160405280601281526020017f5265776172642062616c616e63652069733a0000000000000000000000000000815250836001015461091c565b505050565b6000600360003373ffffffffffffffffffffffffffffffffffffffff1673ffffffffffffffffffffffffffffffffffffffff16815260200190815260200160002090506107063382600001546109b8565b600081600101549050600081141561074a576040517ff4d678b800000000000000000000000000000000000000000000000000000000815260040160405180910390fd5b600082600101819055506107936040518060400160405280601981526020017f416d6f756e74206f662072657761726420636c61696d65643a000000000000008152508261091c565b600260009054906101000a900473ffffffffffffffffffffffffffffffffffffffff1673ffffffffffffffffffffffffffffffffffffffff166340c10f1933836040518363ffffffff1660e01b81526004016107f0929190610f97565b600060405180830381600087803b15801561080a57600080fd5b505af115801561081e573d6000803e3d6000fd5b505050505050565b6000600360008373ffffffffffffffffffffffffffffffffffffffff1673ffffffffffffffffffffffffffffffffffffffff168152602001908152602001600020600101549050919050565b61087a610a51565b600073ffffffffffffffffffffffffffffffffffffffff168173ffffffffffffffffffffffffffffffffffffffff1614156108ea576040517f08c379a00000000000000000000000000000000000000000000000000000000081526004016108e190611043565b60405180910390fd5b6108f381610acf565b50565b600160009054906101000a900473ffffffffffffffffffffffffffffffffffffffff1681565b6109b482826040516024016109329291906110eb565b6040516020818303038152906040527f9710a9d0000000000000000000000000000000000000000000000000000000007bffffffffffffffffffffffffffffffffffffffffffffffffffffffff19166020820180517bffffffffffffffffffffffffffffffffffffffffffffffffffffffff8381831617835250505050610b93565b5050565b6000600360008473ffffffffffffffffffffffffffffffffffffffff1673ffffffffffffffffffffffffffffffffffffffff16815260200190815260200160002090506000606483610a0a919061114a565b9050610a2881620151808460020154610bbc9092919063ffffffff16565b826001016000828254610a3b9190610f0d565b9250508190555042826002018190555050505050565b610a59610bfb565b73ffffffffffffffffffffffffffffffffffffffff16610a776104a7565b73ffffffffffffffffffffffffffffffffffffffff1614610acd576040517f08c379a0000000000000000000000000000000000000000000000000000000008152600401610ac4906111c7565b60405180910390fd5b565b60008060009054906101000a900473ffffffffffffffffffffffffffffffffffffffff169050816000806101000a81548173ffffffffffffffffffffffffffffffffffffffff021916908373ffffffffffffffffffffffffffffffffffffffff1602179055508173ffffffffffffffffffffffffffffffffffffffff168173ffffffffffffffffffffffffffffffffffffffff167f8be0079c531659141344cd1fd0a4f28419497f9722a3daafe3b4186f6b6457e060405160405180910390a35050565b60008151905060006a636f6e736f6c652e6c6f679050602083016000808483855afa5050505050565b600080841415610bcf5760009050610bf4565b81838542610bdd9190610f63565b610be791906111e7565b610bf1919061114a565b90505b9392505050565b600033905090565b6000819050919050565b610c1681610c03565b82525050565b6000602082019050610c316000830184610c0d565b92915050565b600080fd5b610c4581610c03565b8114610c5057600080fd5b50565b600081359050610c6281610c3c565b92915050565b600060208284031215610c7e57610c7d610c37565b5b6000610c8c84828501610c53565b91505092915050565b600073ffffffffffffffffffffffffffffffffffffffff82169050919050565b6000819050919050565b6000610cda610cd5610cd084610c95565b610cb5565b610c95565b9050919050565b6000610cec82610cbf565b9050919050565b6000610cfe82610ce1565b9050919050565b610d0e81610cf3565b82525050565b6000602082019050610d296000830184610d05565b92915050565b6000610d3a82610c95565b9050919050565b610d4a81610d2f565b8114610d5557600080fd5b50565b600081359050610d6781610d41565b92915050565b600060208284031215610d8357610d82610c37565b5b6000610d9184828501610d58565b91505092915050565b610da381610d2f565b82525050565b6000602082019050610dbe6000830184610d9a565b92915050565b6000610dcf82610ce1565b9050919050565b610ddf81610dc4565b82525050565b6000602082019050610dfa6000830184610dd6565b92915050565b600081519050610e0f81610c3c565b92915050565b600060208284031215610e2b57610e2a610c37565b5b6000610e3984828501610e00565b91505092915050565b6000606082019050610e576000830186610d9a565b610e646020830185610d9a565b610e716040830184610c0d565b949350505050565b60008115159050919050565b610e8e81610e79565b8114610e9957600080fd5b50565b600081519050610eab81610e85565b92915050565b600060208284031215610ec757610ec6610c37565b5b6000610ed584828501610e9c565b91505092915050565b7f4e487b7100000000000000000000000000000000000000000000000000000000600052601160045260246000fd5b6000610f1882610c03565b9150610f2383610c03565b9250827fffffffffffffffffffffffffffffffffffffffffffffffffffffffffffffffff03821115610f5857610f57610ede565b5b828201905092915050565b6000610f6e82610c03565b9150610f7983610c03565b925082821015610f8c57610f8b610ede565b5b828203905092915050565b6000604082019050610fac6000830185610d9a565b610fb96020830184610c0d565b9392505050565b600082825260208201905092915050565b7f4f776e61626c653a206e6577206f776e657220697320746865207a65726f206160008201527f6464726573730000000000000000000000000000000000000000000000000000602082015250565b600061102d602683610fc0565b915061103882610fd1565b604082019050919050565b6000602082019050818103600083015261105c81611020565b9050919050565b600081519050919050565b60005b8381101561108c578082015181840152602081019050611071565b8381111561109b576000848401525b50505050565b6000601f19601f8301169050919050565b60006110bd82611063565b6110c78185610fc0565b93506110d781856020860161106e565b6110e0816110a1565b840191505092915050565b6000604082019050818103600083015261110581856110b2565b90506111146020830184610c0d565b9392505050565b7f4e487b7100000000000000000000000000000000000000000000000000000000600052601260045260246000fd5b600061115582610c03565b915061116083610c03565b9250826111705761116f61111b565b5b828204905092915050565b7f4f776e61626c653a2063616c6c6572206973206e6f7420746865206f776e6572600082015250565b60006111b1602083610fc0565b91506111bc8261117b565b602082019050919050565b600060208201905081810360008301526111e0816111a4565b9050919050565b60006111f282610c03565b91506111fd83610c03565b9250817fffffffffffffffffffffffffffffffffffffffffffffffffffffffffffffffff048311821515161561123657611235610ede565b5b82820290509291505056fe546f6b656e2042616c616e63652075706f6e206372656174696e67207374616b653a42616c616e6365206c6566742061667465722072656d6f76696e67207374616b653aa2646970667358221220a11ed88aa661cda5d1e9a105455ba3b0875fd3ffba0f89d9ed40edf284d68ddf64736f6c63430008090033",
  "devdoc": {
    "kind": "dev",
    "methods": {
      "owner()": {
        "details": "Returns the address of the current owner."
      },
      "renounceOwnership()": {
        "details": "Leaves the contract without owner. It will not be possible to call `onlyOwner` functions anymore. Can only be called by the current owner. NOTE: Renouncing ownership will leave the contract without an owner, thereby removing any functionality that is only available to the owner."
      },
      "transferOwnership(address)": {
        "details": "Transfers ownership of the contract to a new account (`newOwner`). Can only be called by the current owner."
      }
    },
    "version": 1
  },
  "userdoc": {
    "kind": "user",
    "methods": {},
    "version": 1
  },
  "storageLayout": {
    "storage": [
      {
        "astId": 7,
        "contract": "contracts/Staking.sol:Staking",
        "label": "_owner",
        "offset": 0,
        "slot": "0",
        "type": "t_address"
      },
      {
        "astId": 933,
        "contract": "contracts/Staking.sol:Staking",
        "label": "token",
        "offset": 0,
        "slot": "1",
        "type": "t_contract(IERC20)776"
      },
      {
        "astId": 936,
        "contract": "contracts/Staking.sol:Staking",
        "label": "reward",
        "offset": 0,
        "slot": "2",
        "type": "t_contract(IRewardToken)925"
      },
      {
        "astId": 975,
        "contract": "contracts/Staking.sol:Staking",
        "label": "_staker",
        "offset": 0,
        "slot": "3",
        "type": "t_mapping(t_address,t_struct(StakeHolder)970_storage)"
      }
    ],
    "types": {
      "t_address": {
        "encoding": "inplace",
        "label": "address",
        "numberOfBytes": "20"
      },
      "t_contract(IERC20)776": {
        "encoding": "inplace",
        "label": "contract IERC20",
        "numberOfBytes": "20"
      },
      "t_contract(IRewardToken)925": {
        "encoding": "inplace",
        "label": "contract IRewardToken",
        "numberOfBytes": "20"
      },
      "t_mapping(t_address,t_struct(StakeHolder)970_storage)": {
        "encoding": "mapping",
        "key": "t_address",
        "label": "mapping(address => struct Staking.StakeHolder)",
        "numberOfBytes": "32",
        "value": "t_struct(StakeHolder)970_storage"
      },
      "t_struct(StakeHolder)970_storage": {
        "encoding": "inplace",
        "label": "struct Staking.StakeHolder",
        "members": [
          {
            "astId": 965,
            "contract": "contracts/Staking.sol:Staking",
            "label": "tokenBalance",
            "offset": 0,
            "slot": "0",
            "type": "t_uint256"
          },
          {
            "astId": 967,
            "contract": "contracts/Staking.sol:Staking",
            "label": "rewardBalance",
            "offset": 0,
            "slot": "1",
            "type": "t_uint256"
          },
          {
            "astId": 969,
            "contract": "contracts/Staking.sol:Staking",
            "label": "lastTimeStamp",
            "offset": 0,
            "slot": "2",
            "type": "t_uint256"
          }
        ],
        "numberOfBytes": "96"
      },
      "t_uint256": {
        "encoding": "inplace",
        "label": "uint256",
        "numberOfBytes": "32"
      }
    }
  }
}